{
  "contractName": "Car",
  "abi": [
    {
      "constant": true,
      "inputs": [],
      "name": "model",
      "outputs": [
        {
          "name": "",
          "type": "string"
        }
      ],
      "payable": false,
      "stateMutability": "view",
      "type": "function",
      "signature": "0x0ad9d052"
    },
    {
      "constant": true,
      "inputs": [],
      "name": "status",
      "outputs": [
        {
          "name": "",
          "type": "uint8"
        }
      ],
      "payable": false,
      "stateMutability": "view",
      "type": "function",
      "signature": "0x200d2ed2"
    },
    {
      "constant": true,
      "inputs": [],
      "name": "membershipType",
      "outputs": [
        {
          "name": "",
          "type": "string"
        }
      ],
      "payable": false,
      "stateMutability": "view",
      "type": "function",
      "signature": "0x3667e1ba"
    },
    {
      "constant": true,
      "inputs": [],
      "name": "colour",
      "outputs": [
        {
          "name": "",
          "type": "string"
        }
      ],
      "payable": false,
      "stateMutability": "view",
      "type": "function",
      "signature": "0x3dbc0610"
    },
    {
      "constant": true,
      "inputs": [],
      "name": "VIN",
      "outputs": [
        {
          "name": "",
          "type": "uint256"
        }
      ],
      "payable": false,
      "stateMutability": "view",
      "type": "function",
      "signature": "0x42ed5a8e"
    },
    {
      "constant": true,
      "inputs": [],
      "name": "reg",
      "outputs": [
        {
          "name": "",
          "type": "string"
        }
      ],
      "payable": false,
      "stateMutability": "view",
      "type": "function",
      "signature": "0x738fdd1a"
    },
    {
      "constant": true,
      "inputs": [],
      "name": "owner",
      "outputs": [
        {
          "name": "",
          "type": "address"
        }
      ],
      "payable": false,
      "stateMutability": "view",
      "type": "function",
      "signature": "0x8da5cb5b"
    },
    {
      "constant": true,
      "inputs": [],
      "name": "scrapped",
      "outputs": [
        {
          "name": "",
          "type": "bool"
        }
      ],
      "payable": false,
      "stateMutability": "view",
      "type": "function",
      "signature": "0xaa3d08e4"
    },
    {
      "constant": true,
      "inputs": [],
      "name": "V5cID",
      "outputs": [
        {
          "name": "",
          "type": "string"
        }
      ],
      "payable": false,
      "stateMutability": "view",
      "type": "function",
      "signature": "0xbfa172ab"
    },
    {
      "constant": true,
      "inputs": [],
      "name": "make",
      "outputs": [
        {
          "name": "",
          "type": "string"
        }
      ],
      "payable": false,
      "stateMutability": "view",
      "type": "function",
      "signature": "0xc6dad082"
    },
    {
      "inputs": [
        {
          "name": "_membershipType",
          "type": "string"
        },
        {
          "name": "_V5cID",
          "type": "string"
        },
        {
          "name": "_VIN",
          "type": "uint256"
        }
      ],
      "payable": false,
      "stateMutability": "nonpayable",
      "type": "constructor",
      "signature": "constructor"
    },
    {
      "constant": false,
      "inputs": [
        {
          "name": "_V5cID",
          "type": "string"
        },
        {
          "name": "_VIN",
          "type": "uint256"
        }
      ],
      "name": "createCar",
      "outputs": [],
      "payable": false,
      "stateMutability": "nonpayable",
      "type": "function",
      "signature": "0xecadf8b8"
    },
    {
      "constant": false,
      "inputs": [
        {
          "name": "_VIN",
          "type": "uint256"
        }
      ],
      "name": "setVIN",
      "outputs": [],
      "payable": false,
      "stateMutability": "nonpayable",
      "type": "function",
      "signature": "0xd00deb7f"
    },
    {
      "constant": false,
      "inputs": [
        {
          "name": "_make",
          "type": "string"
        }
      ],
      "name": "setMake",
      "outputs": [],
      "payable": false,
      "stateMutability": "nonpayable",
      "type": "function",
      "signature": "0xa9c63d44"
    },
    {
      "constant": false,
      "inputs": [
        {
          "name": "_model",
          "type": "string"
        }
      ],
      "name": "setModel",
      "outputs": [],
      "payable": false,
      "stateMutability": "nonpayable",
      "type": "function",
      "signature": "0x46d75c8c"
    },
    {
      "constant": false,
      "inputs": [
        {
          "name": "_colour",
          "type": "string"
        }
      ],
      "name": "setColour",
      "outputs": [],
      "payable": false,
      "stateMutability": "nonpayable",
      "type": "function",
      "signature": "0xdd4f4191"
    },
    {
      "constant": false,
      "inputs": [
        {
          "name": "_reg",
          "type": "string"
        }
      ],
      "name": "setReg",
      "outputs": [],
      "payable": false,
      "stateMutability": "nonpayable",
      "type": "function",
      "signature": "0x52356774"
    },
    {
      "constant": false,
      "inputs": [],
      "name": "scrap",
      "outputs": [],
      "payable": false,
      "stateMutability": "nonpayable",
      "type": "function",
      "signature": "0x5e6536df"
    },
    {
      "constant": false,
      "inputs": [
        {
          "name": "transferParty",
          "type": "address"
        }
      ],
      "name": "transfer",
      "outputs": [],
      "payable": false,
      "stateMutability": "nonpayable",
      "type": "function",
      "signature": "0x1a695230"
    }
  ],
  "bytecode": "0x60806040523480156200001157600080fd5b5060405162000fb738038062000fb7833981018060405281019080805182019291906020018051820192919060200180519060200190929190505050826007908051906020019062000065929190620000ef565b5033600660006101000a81548173ffffffffffffffffffffffffffffffffffffffff021916908373ffffffffffffffffffffffffffffffffffffffff160217905550620000c28282620000cb640100000000026401000000009004565b5050506200019e565b8160009080519060200190620000e3929190620000ef565b50806001819055505050565b828054600181600116156101000203166002900490600052602060002090601f016020900481019282601f106200013257805160ff191683800117855562000163565b8280016001018555821562000163579182015b828111156200016257825182559160200191906001019062000145565b5b50905062000172919062000176565b5090565b6200019b91905b80821115620001975760008160009055506001016200017d565b5090565b90565b610e0980620001ae6000396000f3006080604052600436106100fc576000357c0100000000000000000000000000000000000000000000000000000000900463ffffffff1680630ad9d052146101015780631a69523014610191578063200d2ed2146101d45780633667e1ba146102055780633dbc06101461029557806342ed5a8e1461032557806346d75c8c1461035057806352356774146103b95780635e6536df14610422578063738fdd1a146104395780638da5cb5b146104c9578063a9c63d4414610520578063aa3d08e414610589578063bfa172ab146105b8578063c6dad08214610648578063d00deb7f146106d8578063dd4f419114610705578063ecadf8b81461076e575b600080fd5b34801561010d57600080fd5b506101166107e1565b6040518080602001828103825283818151815260200191508051906020019080838360005b8381101561015657808201518184015260208101905061013b565b50505050905090810190601f1680156101835780820380516001836020036101000a031916815260200191505b509250505060405180910390f35b34801561019d57600080fd5b506101d2600480360381019080803573ffffffffffffffffffffffffffffffffffffffff16906020019092919050505061087f565b005b3480156101e057600080fd5b506101e961091f565b604051808260ff1660ff16815260200191505060405180910390f35b34801561021157600080fd5b5061021a610932565b6040518080602001828103825283818151815260200191508051906020019080838360005b8381101561025a57808201518184015260208101905061023f565b50505050905090810190601f1680156102875780820380516001836020036101000a031916815260200191505b509250505060405180910390f35b3480156102a157600080fd5b506102aa6109d0565b6040518080602001828103825283818151815260200191508051906020019080838360005b838110156102ea5780820151818401526020810190506102cf565b50505050905090810190601f1680156103175780820380516001836020036101000a031916815260200191505b509250505060405180910390f35b34801561033157600080fd5b5061033a610a6e565b6040518082815260200191505060405180910390f35b34801561035c57600080fd5b506103b7600480360381019080803590602001908201803590602001908080601f0160208091040260200160405190810160405280939291908181526020018383808284378201915050505050509192919290505050610a74565b005b3480156103c557600080fd5b50610420600480360381019080803590602001908201803590602001908080601f0160208091040260200160405190810160405280939291908181526020018383808284378201915050505050509192919290505050610a8e565b005b34801561042e57600080fd5b50610437610aa8565b005b34801561044557600080fd5b5061044e610ac5565b6040518080602001828103825283818151815260200191508051906020019080838360005b8381101561048e578082015181840152602081019050610473565b50505050905090810190601f1680156104bb5780820380516001836020036101000a031916815260200191505b509250505060405180910390f35b3480156104d557600080fd5b506104de610b63565b604051808273ffffffffffffffffffffffffffffffffffffffff1673ffffffffffffffffffffffffffffffffffffffff16815260200191505060405180910390f35b34801561052c57600080fd5b50610587600480360381019080803590602001908201803590602001908080601f0160208091040260200160405190810160405280939291908181526020018383808284378201915050505050509192919290505050610b89565b005b34801561059557600080fd5b5061059e610ba3565b604051808215151515815260200191505060405180910390f35b3480156105c457600080fd5b506105cd610bb6565b6040518080602001828103825283818151815260200191508051906020019080838360005b8381101561060d5780820151818401526020810190506105f2565b50505050905090810190601f16801561063a5780820380516001836020036101000a031916815260200191505b509250505060405180910390f35b34801561065457600080fd5b5061065d610c54565b6040518080602001828103825283818151815260200191508051906020019080838360005b8381101561069d578082015181840152602081019050610682565b50505050905090810190601f1680156106ca5780820380516001836020036101000a031916815260200191505b509250505060405180910390f35b3480156106e457600080fd5b5061070360048036038101908080359060200190929190505050610cf2565b005b34801561071157600080fd5b5061076c600480360381019080803590602001908201803590602001908080601f0160208091040260200160405190810160405280939291908181526020018383808284378201915050505050509192919290505050610cfc565b005b34801561077a57600080fd5b506107df600480360381019080803590602001908201803590602001908080601f016020809104026020016040519081016040528093929190818152602001838380828437820191505050505050919291929080359060200190929190505050610d16565b005b60038054600181600116156101000203166002900480601f0160208091040260200160405190810160405280929190818152602001828054600181600116156101000203166002900480156108775780601f1061084c57610100808354040283529160200191610877565b820191906000526020600020905b81548152906001019060200180831161085a57829003601f168201915b505050505081565b600660009054906101000a900473ffffffffffffffffffffffffffffffffffffffff1673ffffffffffffffffffffffffffffffffffffffff163373ffffffffffffffffffffffffffffffffffffffff161415156108db57600080fd5b80600660006101000a81548173ffffffffffffffffffffffffffffffffffffffff021916908373ffffffffffffffffffffffffffffffffffffffff16021790555050565b600660159054906101000a900460ff1681565b60078054600181600116156101000203166002900480601f0160208091040260200160405190810160405280929190818152602001828054600181600116156101000203166002900480156109c85780601f1061099d576101008083540402835291602001916109c8565b820191906000526020600020905b8154815290600101906020018083116109ab57829003601f168201915b505050505081565b60048054600181600116156101000203166002900480601f016020809104026020016040519081016040528092919081815260200182805460018160011615610100020316600290048015610a665780601f10610a3b57610100808354040283529160200191610a66565b820191906000526020600020905b815481529060010190602001808311610a4957829003601f168201915b505050505081565b60015481565b8060039080519060200190610a8a929190610d38565b5050565b8060059080519060200190610aa4929190610d38565b5050565b6001600660146101000a81548160ff021916908315150217905550565b60058054600181600116156101000203166002900480601f016020809104026020016040519081016040528092919081815260200182805460018160011615610100020316600290048015610b5b5780601f10610b3057610100808354040283529160200191610b5b565b820191906000526020600020905b815481529060010190602001808311610b3e57829003601f168201915b505050505081565b600660009054906101000a900473ffffffffffffffffffffffffffffffffffffffff1681565b8060029080519060200190610b9f929190610d38565b5050565b600660149054906101000a900460ff1681565b60008054600181600116156101000203166002900480601f016020809104026020016040519081016040528092919081815260200182805460018160011615610100020316600290048015610c4c5780601f10610c2157610100808354040283529160200191610c4c565b820191906000526020600020905b815481529060010190602001808311610c2f57829003601f168201915b505050505081565b60028054600181600116156101000203166002900480601f016020809104026020016040519081016040528092919081815260200182805460018160011615610100020316600290048015610cea5780601f10610cbf57610100808354040283529160200191610cea565b820191906000526020600020905b815481529060010190602001808311610ccd57829003601f168201915b505050505081565b8060018190555050565b8060049080519060200190610d12929190610d38565b5050565b8160009080519060200190610d2c929190610d38565b50806001819055505050565b828054600181600116156101000203166002900490600052602060002090601f016020900481019282601f10610d7957805160ff1916838001178555610da7565b82800160010185558215610da7579182015b82811115610da6578251825591602001919060010190610d8b565b5b509050610db49190610db8565b5090565b610dda91905b80821115610dd6576000816000905550600101610dbe565b5090565b905600a165627a7a72305820d304489e2f6a0889a3f5cb9614378cc8195a8081c5c81f3cc00177f851fb44710029",
  "source": "pragma solidity ^0.4.2;\n\nimport \"./Authentication.sol\";\n\ncontract Car {\n     string public V5cID;\n     uint256 public VIN;\n     string public make;\n     string public model;\n     string public colour;\n     string public reg;\n     address public owner;\n     bool public scrapped; \n     uint8 public status;\n     string public membershipType;\n\n   //event cs(string _V5cID, uint256 _VIN);\n\n    modifier canCreateCar {\n        require(keccak256(membershipType) == keccak256('Regulator'));\n        _;\n    }\n\n    modifier isOwner() {\n        require(msg.sender == owner);\n        _;\n    }\n\n    constructor(string memory _membershipType, string memory _V5cID, uint256 _VIN) {\n        membershipType = _membershipType;\n        owner = msg.sender;\n        createCar(_V5cID, _VIN);\n        \n    }\n    \n\n    function createCar(string memory _V5cID, uint256 _VIN)  {\n       // cs(_V5cID, _VIN);\n        V5cID = _V5cID;\n        VIN   = _VIN;\n    }\n\n\n    function setVIN(uint256 _VIN) {\n        VIN = _VIN;\n    }\n\n    function setMake(string memory _make) {\n        make = _make;\n    } \n\n    function setModel(string memory _model) {\n        model = _model;\n    } \n\n    function setColour(string memory _colour) {\n        colour = _colour;\n    } \n\n    function setReg(string memory _reg) {\n        reg = _reg;\n    } \n\n    function scrap() {\n        scrapped = true;\n    }\n\n    function transfer(address transferParty) isOwner() {\n        owner = transferParty;\n    }\n\n\n}",
  "sourcePath": "/home/sumit/projects/tempcarlease/carlease/contracts/Car.sol",
  "compiler": {
    "name": "solc",
    "version": "0.4.24+commit.e67f0147.Emscripten.clang"
  },
  "schemaVersion": "3.0.6",
  "updatedAt": "2019-04-25T16:12:31.329Z",
  "devdoc": {
    "methods": {}
  },
  "userdoc": {
    "methods": {}
  }
}